{
    "contractName": "Bank",
    "abi": [
        {
            "inputs": [],
            "name": "deposit",
            "outputs": [],
            "stateMutability": "payable",
            "type": "function"
        },
        {
            "inputs": [],
            "name": "getAddress",
            "outputs": [
                {
                    "internalType": "address",
                    "name": "",
                    "type": "address"
                }
            ],
            "stateMutability": "view",
            "type": "function"
        },
        {
            "inputs": [],
            "name": "getBalance",
            "outputs": [
                {
                    "internalType": "uint256",
                    "name": "",
                    "type": "uint256"
                }
            ],
            "stateMutability": "view",
            "type": "function"
        },
        {
            "inputs": [
                {
                    "internalType": "address payable",
                    "name": "toAddress",
                    "type": "address"
                }
            ],
            "name": "transfer",
            "outputs": [],
            "stateMutability": "payable",
            "type": "function"
        },
        {
            "inputs": [
                {
                    "internalType": "address payable",
                    "name": "_to",
                    "type": "address"
                },
                {
                    "internalType": "uint256",
                    "name": "_amount",
                    "type": "uint256"
                }
            ],
            "name": "withdraw",
            "outputs": [],
            "stateMutability": "nonpayable",
            "type": "function"
        }
    ],
    "bytecode": "608060405234801561001057600080fd5b506101d1806100206000396000f3fe60806040526004361061004a5760003560e01c806312065fe01461004f5780631a6952301461006f57806338cc483114610084578063d0e30db014610082578063f3fef3a31461009f575b600080fd5b34801561005b57600080fd5b506040514781526020015b60405180910390f35b61008261007d36600461014f565b6100bf565b005b34801561009057600080fd5b50604051308152602001610066565b3480156100ab57600080fd5b506100826100ba366004610171565b6100f8565b6040516001600160a01b038216903480156108fc02916000818181858888f193505050501580156100f4573d6000803e3d6000fd5b5050565b6040516001600160a01b0383169082156108fc029083906000818181858888f1935050505015801561012e573d6000803e3d6000fd5b505050565b80356001600160a01b038116811461014a57600080fd5b919050565b60006020828403121561016157600080fd5b61016a82610133565b9392505050565b6000806040838503121561018457600080fd5b61018d83610133565b94602093909301359350505056fea2646970667358221220f1d997f0f2262d517a322f9f3a9bbeae7baf1696116a8258fd46feb88a7e9cd264736f6c63430008130033",
    "sourcePath": "c:/Users/Hemali/Desktop/Bank/Bank.sol",
    "compiler": {
        "name": "solc",
        "version": "0.8.19+commit.7dd6d404"
    },
    "functionHashes": {
        "deposit()": "d0e30db0",
        "getAddress()": "38cc4831",
        "getBalance()": "12065fe0",
        "transfer(address)": "1a695230",
        "withdraw(address,uint256)": "f3fef3a3"
    },
    "gasEstimates": {
        "creation": {
            "codeDepositCost": "93000",
            "executionCost": "141",
            "totalCost": "93141"
        },
        "external": {
            "deposit()": "140",
            "getAddress()": "198",
            "getBalance()": "146",
            "transfer(address)": "infinite",
            "withdraw(address,uint256)": "infinite"
        }
    }
}